:020000040000FA
:10000000700400206D020000710200007302000005
:100010007502000077020000790200000000000075
:100020000000000000000000000000007B02000053
:100030007D020000000000007F020000810200003D
:10004000830200008302000083020000830200009C
:10005000830200008302000083020000830200008C
:10006000830200008302000083020000830200007C
:10007000830200008302000083020000830200006C
:10008000830200008302000083020000830200005C
:10009000830200008302000083020000830200004C
:1000A000830200008302000083020000830200003C
:1000B000830200008302000083020000830200002C
:1000C000830200008302000083020000830200001C
:1000D000830200008302000083020000830200000C
:1000E00083020000830200008302000083020000FC
:1000F00083020000830200008302000083020000EC
:1001000083020000830200008302000083020000DB
:1001100083020000830200008302000083020000CB
:1001200083020000830200008302000083020000BB
:1001300083020000830200008302000083020000AB
:1001400000000000000000000000000000000000AF
:10015000830200008302000083020000830200008B
:10016000000000000000000000000000000000008F
:10017000000000000000000000000000000000007F
:10018000000000000000000000000000000000006F
:10019000000000000000000000000000000000005F
:1001A000000000000000000000000000000000004F
:1001B000830200008302000083020000830200002B
:1001C000830200008302000083020000830200001B
:1001D000830200008302000083020000830200000B
:1001E00083020000830200008302000083020000FB
:1001F00083020000830200008302000083020000EB
:10020000830200008302000083020000000000005F
:1002100083020000830200008302000083020000CA
:1002200083020000830200008302000083020000BA
:1002300083020000830200008302000083020000AA
:10024000830200008302000083020000830200009A
:10025000830200008302000083020000830200008A
:1002600083020000830200008302000000F00AB84D
:10027000FEE7FEE7FEE7FEE7FEE7FEE7FEE7FEE756
:10028000FEE7FEE700F002F800F03CF80AA090E874
:10029000000C82448344AAF10107DA4501D100F041
:1002A00031F8AFF2090EBAE80F0013F0010F18BFD2
:1002B000FB1A43F001031847C00C0000E00C0000DB
:1002C000103A24BF78C878C1FAD8520724BF30C882
:1002D00030C144BF04680C60704700000023002454
:1002E00000250026103A28BF78C1FBD8520728BF46
:1002F00030C148BF0B6070471FB500F037FE1FBD0F
:1003000010B510BD00F0D3F91146FFF7F5FF00F06E
:1003100084F800F0F1F903B4FFF7F2FF03BC00F03A
:10032000F5F900001D48006F40F000401B490867C8
:100330000846006F40F4006008670846006E20F42D
:10034000F86008660846006E00F5A8600866084672
:10035000006F20F0700008670846006F08670846C5
:10036000006F20F4005008670846006F40F080409E
:1003700008670846006F20F0FE5000F180700867A3
:1003800000BF0648006D10F0400FFAD00348006F20
:1003900020F40060014908677047000000E00F404A
:1003A00072B6704762B67047EFF3108072B670474E
:1003B00080F31088704730BF704702480249014AF5
:1003C000024B704770000020700400207000002075
:1003D000411E4FF0E02251610021916100BF4FF0BA
:1003E000E021096911F4803FF9D0704700204FF0F7
:1003F000E021086188615C48006820F07F405A492C
:10040000086005204FF0E0210861704700204FF0A0
:10041000E02108610520086170472DED0E8B82B048
:10042000FFF7F4FFFFF7E2FFFFF77CFF00F0C0F8F3
:100430004E48006840F020004D49C1F808014B4883
:10044000006801904B48006840F00400494908608A
:100450004948006840F03000474908604748006854
:1004600020F00400454908604548006840F0040059
:10047000434908604348006820F4706041490860BF
:100480004FF00000A1F1040108606CE000F0E6F814
:100490003D4908600846006800F06DFB41EC100B18
:1004A000B0EE40CAF0EE60CA3848006800F063FB66
:1004B00041EC100BB0EE40EAF0EE60EA9FED340B39
:1004C00053EC102B51EC1E0B00F068FB41EC100BB1
:1004D000B0EE40DAF0EE60DA53EC1C2B51EC1D0B61
:1004E00000F05CFB41EC100BB0EE40BAF0EE60BAED
:1004F0009FED290B53EC102B51EC1B0B00F0B6F9C0
:1005000041EC100BB0EE409AF0EE609A1F48006884
:1005100000F031FB41EC100BB0EE40AAF0EE60AA07
:1005200053EC192B51EC1A0B00F0F8F841EC100BBE
:10053000B0EE408AF0EE608A51EC180B00F0EEFA53
:100540001749086004201749086015480068FFF73C
:100550003FFF00201449C1F8FC0311490968134A00
:10056000501AFFF735FF91E720ED00E008E10F405A
:1005700000E00F4000540240084500402054024073
:100580001C5502402C5502400400002000000020B1
:10059000CDCCCCCCCCCCEC3F0000000000FEAF407A
:1005A00008000020FC53024000500240006A18007E
:1005B00008B53348006840F011003249C1F808011D
:1005C0002F48006800903048006820F004002E4951
:1005D00008602E48006840F004002C4908602C4850
:1005E000006820F004002A4908602A48006840F0AA
:1005F0000400284908602348D0F8000140F4803006
:100600002049C1F800011E48006800900846D0F853
:10061000000120F440702049086040F223101F4977
:1006200008620846006820F0080008600846406933
:1006300020F4704048611A48006820F00F0000F173
:100640000100174908604FF006001449C1F8A400E2
:100650000846006840F00800086008BD08210F4AFD
:10066000916200BF0D49496811F0080FFAD00D4999
:100670000968C1F30B004FF00801084AD1607047C8
:1006800008E10F4000E00F400044024020440240D7
:100690001C4502402845024000E10F400080034015
:1006A000A0800340A880034070477047704775469C
:1006B00000F028F8AE4605006946534620F00700D2
:1006C000854618B020B5FFF778FEBDE820404FF012
:1006D00000064FF000074FF000084FF0000B21F02C
:1006E0000701AC46ACE8C009ACE8C009ACE8C009F9
:1006F000ACE8C0098D4670470446AFF30080204641
:10070000FFF709FE004870470C000020014918203F
:10071000ABBEFEE7260002007047000010B591EA6C
:10072000030F48BF83F0004300F13E83841A71EB4E
:10073000030C05D2121943EB0C03001B61EB0C01F7
:10074000DFF824E14FEA1154A4EB135C1EEA430FD7
:1007500018BF9EEA445F73D023EA0E03DCF1200E3B
:1007600021EA045143F4801332D322FA0CFE10EB39
:100770000E0023FA0CFE41EB0E01CCF1200E03FA21
:100780000EFE10EB0E0051F10001B1F5801FCCF10F
:10079000200E32D201EB045112FA0EF2BDE81040E5
:1007A00058BF7047401C38BF5FEA420218BF70470D
:1007B000002814BF20F0010041F100014FEA41037D
:1007C00013F5001F38BF7047A1F1C04100F0DEBA39
:1007D000012A43EB0302ACF1200CDCF11F0E32BF07
:1007E0004FF0000E23FA0CF310EB030041EB045121
:1007F000B4EB115FD0D0A1EB045101F58011490891
:100800005FEA300001EB04510ED350F1000038BF15
:1008100012FA0EFE08D1BDE81040C9E7401C38BFEF
:100820005FEA4202CAD1C3E7BDE810404FEA410384
:1008300013F5001F38BF7047A1F1C04100F0A6BA00
:100840009EEA445F08D011EA5E0FBDE8104004BF85
:1008500001F0004100207047BDE8104070B500F085
:1008600047FA00BF64FBBE3E0000E0FF2DE9C04137
:1008700030B4DFF8A0C23CEA111418BF3CEA1314EC
:1008800000F0EC8081EA03051CEA111444EAD574F7
:1008900018BF1CEA131500F0C780A4EB05044FF045
:1008A000004545EAC12145EAC32341EA505143EAE4
:1008B000525304F17F74994204F500344FEAC0208A
:1008C0004FEAC22208BF904200F09C804FEA1365B5
:1008D0000FF24016765D4FEA134506FB05F7C7F1A8
:1008E000807706FB07F74FEAD737A7FB0368764206
:1008F000C8F58038A7FB06CE38BFA8F1010807FB72
:1009000008E64FF0000EA6FB028CE6FB03CEDCF1FE
:10091000000CCEF1004E38BFAEF1010EA6FB0C5814
:100920004FF000074FF00005E6FB0E87A1FB08C65D
:10093000A0FB07CE16EB0E0645F10005E1FB0765AF
:1009400015F1E04E7EBFA4F580345FEA46066D41A6
:1009500016F1800745F100054FEA17274FEA0666B2
:1009600047EA0567A6F1DE46B6F1805F4FEA152536
:100970001FD9384624F0010C05EBC471BCF1FE6FA1
:1009800001EB0C1102D8F0BCBDE8008124425CBF31
:1009900001F5801E9EEAC47F02D4F0BCBDE8008150
:1009A000244238D4F0BCA1F1C041BDE8004100F0C0
:1009B000EDB94FEAD22242EA43524FEAD323A7FBD2
:1009C00002864FEAD02040EA415007FB03661EEA48
:1009D0000E0F4FEAD12105FB026658BFA6EB005669
:1009E000B6EB00564FEA520E4EEAC37E18EB0E0EDF
:1009F00056EB530EBDD518EB02085E417F1C55F136
:100A00000005B6E74FF480154FF000074FF00006E1
:100A10004FF00008ADE7F0BC4FF0000001F1C0411D
:100A200001F00041BDE8008111EA0C1F0CEA13152A
:100A300000D00CE013EA0C1F00F025804FF00000FE
:100A4000F0BC81EA030101F00041BDE80081F0BC87
:100A5000BDE8004181EA030100F098B9F0BCBDE8AF
:100A6000004170B500F044F9097EFC3E00F007B883
:100A700081EA03014FF0000001F00041704781EA74
:100A8000030100F083B9F0BCBDE800414FF0000065
:100A900021497047FFFDFBF9F7F5F4F2F0EEEDEBBD
:100AA000E9E8E6E4E3E1E0DEDDDBDAD8D7D5D4D36C
:100AB000D1D0CFCDCCCBCAC8C7C6C5C4C2C1C0BFB8
:100AC000BEBDBCBBBAB9B8B7B6B5B4B3B2B1B0AFBE
:100AD000AEADACABAAA9A8A8A7A6A5A4A3A3A2A1A2
:100AE000A09F9F9E9D9C9C9B9A999998979796955D
:100AF00095949393929191908F8F8E8E8D8C8C8BF9
:100B00008B8A898988888787868585848483838280
:100B1000828181800000FF070000F87F4FEA1153B7
:100B2000A3F58063D3F11E03A8BFD3F1200C08DB2B
:100B30004FF0004242EAC12252EA505232FA03F028
:100B4000704709420BD4102BC4BF0020704703F537
:100B5000787CBCF1FF3F05D04FF0FF3070474FF07D
:100B60000000704770B500F0C3F800BF49922480C0
:100B700000207047F0E7B0FA80F310FA03F10AD0D2
:100B8000C3F11D0303F580634FEA41504FEA03525E
:100B900002EBD12170474FF000007047DFF848C1E9
:100BA00070B51CEA111E1EBF1CEA13159EEA0C0F3D
:100BB00095EA0C0F00F06F8081EA030423EA4C13DE
:100BC0004EEAD47E21EA4C1141F4801143F48013A3
:100BD000AE44A1FB024CA0FB0365AEF17F7E36194B
:100BE00055EB0C05A1FB034C4CF10003A0FB021CD0
:100BF00016EB0C06654153F10003094218BF46F09D
:100C0000010613F4007F0BD14FEA03314FEA0530A0
:100C1000340341EA155140EA16506FF003020AE02E
:100C20004FEAC3214FEAC520F40241EA555140EA98
:100C300056506FF0020202EB2E4201EB025585EA9C
:100C4000CE710AD05FEA440C18BF24F0004450F182
:100C5000000041F1000120EAD47040F2FE7C6245C0
:100C600000D270BDA84214BF4FF080444FF0404402
:100C7000002E08BF0024BEF1806FA8BFA1F1C041C3
:100C8000BDE8704080F282804FF0000001F1C04169
:100C900001F0004170479EEA0C0F0CEA131518BFD3
:100CA00095EA0C0F06D04FF0000081EA030E0EF01B
:100CB000004170BD00F01CF88900013E00F007B84B
:100CC00000F009B84FEA430C5FEA5C5C08D081EAA7
:100CD000030100F05BB84FEA410C5FEA5C5CF6D1BF
:100CE0004FF00000014970470000FF070000F87F47
:100CF0000EF1020E2EF0030E5EF8046B364205D4A0
:100D0000012A43EB030515F5001F12D8012841EB1A
:100D1000010C1CF5001F0CD80ED14FEAD17C15F543
:100D2000001F0CEB4C0C0CF1020C08BF4CEBD37CFD
:100D300004E04FF0080C01E04FEAD37C0CEB4C05CB
:100D400026FA05F606F00706B6F1040C06D20EEBFD
:100D5000860CBDE870404CF0010C6047DFE80CF0F9
:100D6000090B02024FF000414FF00000A1F50021F5
:100D700070BD19461046012851EB010418BFD4F587
:100D8000001484BF002001F0004170BD0808A0F5E8
:100D900000114FEA3101704710B591EA030F48BFC7
:100DA00083F000433FF5C2AC841A71EB030C07D209
:100DB00012198CF0004C43EB0C03001B61EB0C018F
:100DC000DFF8A4E14FEA1154A4EB135C1EEA430FD1
:100DD00018BF9EEA445F00F0B08023EA6E035242DF
:100DE00021EA0451C3EB6E0338BF5B1EDCF1200E19
:100DF00025D322FA0CFE10EB0E0043FA0CFE41EB59
:100E00000E01CCF1200E03FA0EFE10EB0E0051F194
:100E10000001CCF1200E29D412FA0EF201EB04519C
:100E2000BDE8104058BF7047401C1CBFB2F1004FD6
:100E3000704700280CBF491C20F00100704712EBDE
:100E4000020E43EB030218BF4FF0010E4EEA4202BE
:100E5000ACF1200CDCF11E0E54D943FA0CFE10EB61
:100E60000E0051F1FF31CCF11E0ED5D50EF1010E61
:100E700012FA0EFE404141EB010101EB445C5FEAD6
:100E80005C5C10D910EBDE7001EB045138BFBEF191
:100E9000004FBDE8104018BF704700280CBF491C28
:100EA00020F00100704730D24FEAD42C11F5001128
:100EB00024F400641BD0B1FA81F20B3AA41AA41EE8
:100EC000D2F12003914030FA03F31943904001EB33
:100ED000CC71002C01EB0451BDE81040A8BF704755
:100EE00001F1C0414FF0000001F000417047B0FA3D
:100EF00080F310FA03F100D110BDE41A173C480545
:100F0000C90AE4E701EB045110BD491001EB04519B
:100F1000BDE810404FEA300002E04FF0000170479A
:100F20004A0008BF0042F8D0B2F5001F28BF704742
:100F300001F000414FF0000070479EEA445F07D087
:100F400011EA5E0FBDE8104004BF00210020704789
:100F5000BDE8104070B5FFF7CBFE00BF40DFF63EA6
:100F600083F00041104670470000E0FF4FF04070F2
:100F7000E1EE100A70470000980F0000000000200A
:100F80000C000000C0020000A40F00000C000020B4
:100F900064040000DC02000000350C0000000000CA
:040FA000000000004D
:040000050000028570
:00000001FF
