:1000000004201220000002281B20A0302A200030EB
:100010002A202120A03001382A20A2173D2060305C
:10002000262008001B20A0302A2000302A20603023
:100030002A20262008003B309400071287118730C1
:10004000840000168015001280110800001280152F
:1000500000160800A2000314A20DA208031D3620FA
:10006000031D2C2847200130230508000012031827
:10007000001680158011031008000130A300A30DA5
:100080004720031C3F28A20D362023080800001635
:0C00900080152310071A231480110800AB
:02400E00713F00
:00000001FF
